{
  "_format": "hh-sol-artifact-1",
  "contractName": "FreelanceMarketplace",
  "sourceName": "contracts/FreelanceMarketplace.sol",
  "abi": [
    {
      "inputs": [],
      "stateMutability": "nonpayable",
      "type": "constructor"
    },
    {
      "inputs": [
        {
          "internalType": "address",
          "name": "owner",
          "type": "address"
        }
      ],
      "name": "OwnableInvalidOwner",
      "type": "error"
    },
    {
      "inputs": [
        {
          "internalType": "address",
          "name": "account",
          "type": "address"
        }
      ],
      "name": "OwnableUnauthorizedAccount",
      "type": "error"
    },
    {
      "anonymous": false,
      "inputs": [
        {
          "indexed": false,
          "internalType": "bytes32",
          "name": "projectId",
          "type": "bytes32"
        },
        {
          "indexed": false,
          "internalType": "address",
          "name": "to",
          "type": "address"
        },
        {
          "indexed": false,
          "internalType": "uint256",
          "name": "amount",
          "type": "uint256"
        }
      ],
      "name": "FundsReleased",
      "type": "event"
    },
    {
      "anonymous": false,
      "inputs": [
        {
          "indexed": true,
          "internalType": "address",
          "name": "previousOwner",
          "type": "address"
        },
        {
          "indexed": true,
          "internalType": "address",
          "name": "newOwner",
          "type": "address"
        }
      ],
      "name": "OwnershipTransferred",
      "type": "event"
    },
    {
      "anonymous": false,
      "inputs": [
        {
          "indexed": false,
          "internalType": "bytes32",
          "name": "projectId",
          "type": "bytes32"
        }
      ],
      "name": "ProjectCompleted",
      "type": "event"
    },
    {
      "anonymous": false,
      "inputs": [
        {
          "indexed": false,
          "internalType": "bytes32",
          "name": "projectId",
          "type": "bytes32"
        },
        {
          "indexed": false,
          "internalType": "address",
          "name": "client",
          "type": "address"
        },
        {
          "indexed": false,
          "internalType": "address",
          "name": "freelancer",
          "type": "address"
        },
        {
          "indexed": false,
          "internalType": "uint256",
          "name": "amount",
          "type": "uint256"
        }
      ],
      "name": "ProjectCreated",
      "type": "event"
    },
    {
      "anonymous": false,
      "inputs": [
        {
          "indexed": false,
          "internalType": "bytes32",
          "name": "projectId",
          "type": "bytes32"
        }
      ],
      "name": "ProjectDisputed",
      "type": "event"
    },
    {
      "anonymous": false,
      "inputs": [
        {
          "indexed": false,
          "internalType": "bytes32",
          "name": "projectId",
          "type": "bytes32"
        },
        {
          "indexed": false,
          "internalType": "uint256",
          "name": "amount",
          "type": "uint256"
        }
      ],
      "name": "ProjectFunded",
      "type": "event"
    },
    {
      "inputs": [
        {
          "internalType": "bytes32",
          "name": "_projectId",
          "type": "bytes32"
        },
        {
          "internalType": "address payable",
          "name": "_freelancer",
          "type": "address"
        }
      ],
      "name": "createProject",
      "outputs": [],
      "stateMutability": "nonpayable",
      "type": "function"
    },
    {
      "inputs": [
        {
          "internalType": "bytes32",
          "name": "_projectId",
          "type": "bytes32"
        }
      ],
      "name": "fundProject",
      "outputs": [],
      "stateMutability": "payable",
      "type": "function"
    },
    {
      "inputs": [
        {
          "internalType": "bytes32",
          "name": "_projectId",
          "type": "bytes32"
        }
      ],
      "name": "initiateDispute",
      "outputs": [],
      "stateMutability": "nonpayable",
      "type": "function"
    },
    {
      "inputs": [],
      "name": "owner",
      "outputs": [
        {
          "internalType": "address",
          "name": "",
          "type": "address"
        }
      ],
      "stateMutability": "view",
      "type": "function"
    },
    {
      "inputs": [],
      "name": "platformFee",
      "outputs": [
        {
          "internalType": "uint256",
          "name": "",
          "type": "uint256"
        }
      ],
      "stateMutability": "view",
      "type": "function"
    },
    {
      "inputs": [
        {
          "internalType": "bytes32",
          "name": "",
          "type": "bytes32"
        }
      ],
      "name": "projects",
      "outputs": [
        {
          "internalType": "address payable",
          "name": "client",
          "type": "address"
        },
        {
          "internalType": "address payable",
          "name": "freelancer",
          "type": "address"
        },
        {
          "internalType": "uint256",
          "name": "amount",
          "type": "uint256"
        },
        {
          "internalType": "bool",
          "name": "funded",
          "type": "bool"
        },
        {
          "internalType": "bool",
          "name": "completed",
          "type": "bool"
        },
        {
          "internalType": "bool",
          "name": "disputed",
          "type": "bool"
        }
      ],
      "stateMutability": "view",
      "type": "function"
    },
    {
      "inputs": [
        {
          "internalType": "bytes32",
          "name": "_projectId",
          "type": "bytes32"
        }
      ],
      "name": "releasePayment",
      "outputs": [],
      "stateMutability": "nonpayable",
      "type": "function"
    },
    {
      "inputs": [],
      "name": "renounceOwnership",
      "outputs": [],
      "stateMutability": "nonpayable",
      "type": "function"
    },
    {
      "inputs": [
        {
          "internalType": "address",
          "name": "newOwner",
          "type": "address"
        }
      ],
      "name": "transferOwnership",
      "outputs": [],
      "stateMutability": "nonpayable",
      "type": "function"
    },
    {
      "inputs": [
        {
          "internalType": "uint256",
          "name": "_newFee",
          "type": "uint256"
        }
      ],
      "name": "updatePlatformFee",
      "outputs": [],
      "stateMutability": "nonpayable",
      "type": "function"
    }
  ],
  "bytecode": "0x60806040526001600255348015601457600080fd5b503380603a57604051631e4fbdf760e01b81526000600482015260240160405180910390fd5b6041816046565b506096565b600080546001600160a01b038381166001600160a01b0319831681178455604051919092169283917f8be0079c531659141344cd1fd0a4f28419497f9722a3daafe3b4186f6b6457e09190a35050565b610b43806100a56000396000f3fe6080604052600436106100915760003560e01c80637b2e941e116100595780637b2e941e146101295780638da5cb5b14610149578063aa0b598814610171578063b96ea12d14610191578063f2fde38b1461023657600080fd5b806326232a2e146100965780634a83b226146100bf5780634ed4fb66146100d4578063715018a6146100f45780637aa1ed5814610109575b600080fd5b3480156100a257600080fd5b506100ac60025481565b6040519081526020015b60405180910390f35b6100d26100cd366004610a23565b610256565b005b3480156100e057600080fd5b506100d26100ef366004610a51565b6103b4565b34801561010057600080fd5b506100d2610511565b34801561011557600080fd5b506100d2610124366004610a23565b610525565b34801561013557600080fd5b506100d2610144366004610a23565b6107c0565b34801561015557600080fd5b506000546040516001600160a01b0390911681526020016100b6565b34801561017d57600080fd5b506100d261018c366004610a23565b610911565b34801561019d57600080fd5b506101f86101ac366004610a23565b600160208190526000918252604090912080549181015460028201546003909201546001600160a01b0393841693909116919060ff808216916101008104821691620100009091041686565b604080516001600160a01b039788168152969095166020870152938501929092521515606084015215156080830152151560a082015260c0016100b6565b34801561024257600080fd5b506100d2610251366004610a81565b610968565b600081815260016020526040902080546001600160a01b031633146102b95760405162461bcd60e51b815260206004820152601460248201527313db9b1e4818db1a595b9d0818d85b88199d5b9960621b60448201526064015b60405180910390fd5b600381015460ff16156103075760405162461bcd60e51b8152602060048201526016602482015275141c9bda9958dd08185b1c9958591e48199d5b99195960521b60448201526064016102b0565b600034116103575760405162461bcd60e51b815260206004820152601d60248201527f416d6f756e74206d7573742062652067726561746572207468616e203000000060448201526064016102b0565b346002820181905560038201805460ff191660011790556040517f315cb30dd854bd9e9df31e31754930ba16b498240f74a4ef23531f84c4ee4910916103a891859190918252602082015260400190565b60405180910390a15050565b6000828152600160205260409020546001600160a01b0316156104125760405162461bcd60e51b815260206004820152601660248201527550726f6a65637420616c72656164792065786973747360501b60448201526064016102b0565b6040805160c081018252338082526001600160a01b038481166020808501828152600086880181815260608089018381526080808b0185815260a08c018681528f87526001808a528e88209d518e54908d166001600160a01b0319918216178f559851908e01805491909c16981697909717909955925160028b01555160039099018054975194511515620100000262ff0000199515156101000261ff00199b15159b909b1661ffff199099169890981799909917939093169590951790965586518981529182019490945294850152908301919091527f1f3dc198274f9126187226163790f56ad50dc025c7f31b39b7db8b380636dd7991016103a8565b6105196109a6565b61052360006109d3565b565b600081815260016020526040902080546001600160a01b0316331461058c5760405162461bcd60e51b815260206004820152601f60248201527f4f6e6c7920636c69656e742063616e2072656c65617365207061796d656e740060448201526064016102b0565b600381015460ff166105d55760405162461bcd60e51b8152602060048201526012602482015271141c9bda9958dd081b9bdd08199d5b99195960721b60448201526064016102b0565b6003810154610100900460ff161561062b5760405162461bcd60e51b8152602060048201526019602482015278141c9bda9958dd08185b1c9958591e4818dbdb5c1b195d1959603a1b60448201526064016102b0565b600381015462010000900460ff161561067c5760405162461bcd60e51b8152602060048201526013602482015272141c9bda9958dd081a5cc8191a5cdc1d5d1959606a1b60448201526064016102b0565b6000606460025483600201546106929190610abb565b61069c9190610ad8565b905060008183600201546106b09190610afa565b60038401805461ff00191661010017905560018401546040519192506001600160a01b03169082156108fc029083906000818181858888f193505050501580156106fe573d6000803e3d6000fd5b50600080546040516001600160a01b039091169184156108fc02918591818181858888f19350505050158015610738573d6000803e3d6000fd5b506040518481527f87fc699ef65446cc22889fe9ae7024f6bb5bcade24f2d5b86b93e9a16092dc759060200160405180910390a16001830154604080518681526001600160a01b03909216602083015281018290527f75d86e5bfa1175e2dc677f3abe3aebba3069f2db6ae492f1734d4b4bc65f61c19060600160405180910390a150505050565b600081815260016020526040902080546001600160a01b03163314806107f2575060018101546001600160a01b031633145b61082d5760405162461bcd60e51b815260206004820152600c60248201526b155b985d5d1a1bdc9a5e995960a21b60448201526064016102b0565b600381015460ff166108765760405162461bcd60e51b8152602060048201526012602482015271141c9bda9958dd081b9bdd08199d5b99195960721b60448201526064016102b0565b6003810154610100900460ff16156108cc5760405162461bcd60e51b8152602060048201526019602482015278141c9bda9958dd08185b1c9958591e4818dbdb5c1b195d1959603a1b60448201526064016102b0565b60038101805462ff00001916620100001790556040517fa919b426b632d61135aa310371ed55180df89cb9f78c16387bf7b702e8e6e4e0906103a89084815260200190565b6109196109a6565b60648111156109635760405162461bcd60e51b81526020600482015260166024820152754665652063616e6e6f7420657863656564203130302560501b60448201526064016102b0565b600255565b6109706109a6565b6001600160a01b03811661099a57604051631e4fbdf760e01b8152600060048201526024016102b0565b6109a3816109d3565b50565b6000546001600160a01b031633146105235760405163118cdaa760e01b81523360048201526024016102b0565b600080546001600160a01b038381166001600160a01b0319831681178455604051919092169283917f8be0079c531659141344cd1fd0a4f28419497f9722a3daafe3b4186f6b6457e09190a35050565b600060208284031215610a3557600080fd5b5035919050565b6001600160a01b03811681146109a357600080fd5b60008060408385031215610a6457600080fd5b823591506020830135610a7681610a3c565b809150509250929050565b600060208284031215610a9357600080fd5b8135610a9e81610a3c565b9392505050565b634e487b7160e01b600052601160045260246000fd5b8082028115828204841417610ad257610ad2610aa5565b92915050565b600082610af557634e487b7160e01b600052601260045260246000fd5b500490565b81810381811115610ad257610ad2610aa556fea2646970667358221220db1b543ce6d9b340d1eefd7a33ca8766e9094c4f828af5b292843e3b4b8dcb7b64736f6c634300081b0033",
  "linkReferences": {},
  "deployedLinkReferences": {}
}