{
  "_format": "hh-sol-artifact-1",
  "contractName": "FreelanceEscrow",
  "sourceName": "contracts/FreelanceEscrow.sol",
  "abi": [
    {
      "anonymous": false,
      "inputs": [
        {
          "indexed": true,
          "internalType": "uint256",
          "name": "projectId",
          "type": "uint256"
        }
      ],
      "name": "DeadlineReached",
      "type": "event"
    },
    {
      "anonymous": false,
      "inputs": [
        {
          "indexed": true,
          "internalType": "uint256",
          "name": "projectId",
          "type": "uint256"
        },
        {
          "indexed": false,
          "internalType": "address",
          "name": "freelancer",
          "type": "address"
        },
        {
          "indexed": false,
          "internalType": "uint256",
          "name": "amount",
          "type": "uint256"
        }
      ],
      "name": "PaymentReleased",
      "type": "event"
    },
    {
      "anonymous": false,
      "inputs": [
        {
          "indexed": true,
          "internalType": "uint256",
          "name": "projectId",
          "type": "uint256"
        },
        {
          "indexed": false,
          "internalType": "address",
          "name": "approver",
          "type": "address"
        }
      ],
      "name": "ProjectApproved",
      "type": "event"
    },
    {
      "anonymous": false,
      "inputs": [
        {
          "indexed": true,
          "internalType": "uint256",
          "name": "projectId",
          "type": "uint256"
        },
        {
          "indexed": false,
          "internalType": "address",
          "name": "employer",
          "type": "address"
        },
        {
          "indexed": false,
          "internalType": "address",
          "name": "freelancer",
          "type": "address"
        },
        {
          "indexed": false,
          "internalType": "uint256",
          "name": "amount",
          "type": "uint256"
        }
      ],
      "name": "ProjectCreated",
      "type": "event"
    },
    {
      "anonymous": false,
      "inputs": [
        {
          "indexed": true,
          "internalType": "uint256",
          "name": "projectId",
          "type": "uint256"
        },
        {
          "indexed": false,
          "internalType": "uint256",
          "name": "amount",
          "type": "uint256"
        }
      ],
      "name": "ProjectFunded",
      "type": "event"
    },
    {
      "inputs": [
        {
          "internalType": "uint256",
          "name": "_projectId",
          "type": "uint256"
        }
      ],
      "name": "approveCompletion",
      "outputs": [],
      "stateMutability": "nonpayable",
      "type": "function"
    },
    {
      "inputs": [
        {
          "internalType": "uint256",
          "name": "_projectId",
          "type": "uint256"
        },
        {
          "internalType": "address",
          "name": "_freelancer",
          "type": "address"
        },
        {
          "internalType": "uint256",
          "name": "_deadline",
          "type": "uint256"
        }
      ],
      "name": "createProject",
      "outputs": [],
      "stateMutability": "payable",
      "type": "function"
    },
    {
      "inputs": [
        {
          "internalType": "uint256",
          "name": "_projectId",
          "type": "uint256"
        }
      ],
      "name": "getProject",
      "outputs": [
        {
          "internalType": "address",
          "name": "employer",
          "type": "address"
        },
        {
          "internalType": "address",
          "name": "freelancer",
          "type": "address"
        },
        {
          "internalType": "uint256",
          "name": "amount",
          "type": "uint256"
        },
        {
          "internalType": "uint256",
          "name": "deadline",
          "type": "uint256"
        },
        {
          "internalType": "bool",
          "name": "isCompleted",
          "type": "bool"
        },
        {
          "internalType": "bool",
          "name": "employerApproved",
          "type": "bool"
        },
        {
          "internalType": "bool",
          "name": "freelancerApproved",
          "type": "bool"
        },
        {
          "internalType": "bool",
          "name": "isFunded",
          "type": "bool"
        }
      ],
      "stateMutability": "view",
      "type": "function"
    },
    {
      "inputs": [
        {
          "internalType": "uint256",
          "name": "",
          "type": "uint256"
        }
      ],
      "name": "projects",
      "outputs": [
        {
          "internalType": "uint256",
          "name": "projectId",
          "type": "uint256"
        },
        {
          "internalType": "address",
          "name": "employer",
          "type": "address"
        },
        {
          "internalType": "address",
          "name": "freelancer",
          "type": "address"
        },
        {
          "internalType": "uint256",
          "name": "amount",
          "type": "uint256"
        },
        {
          "internalType": "uint256",
          "name": "deadline",
          "type": "uint256"
        },
        {
          "internalType": "bool",
          "name": "isCompleted",
          "type": "bool"
        },
        {
          "internalType": "bool",
          "name": "employerApproved",
          "type": "bool"
        },
        {
          "internalType": "bool",
          "name": "freelancerApproved",
          "type": "bool"
        },
        {
          "internalType": "bool",
          "name": "isFunded",
          "type": "bool"
        }
      ],
      "stateMutability": "view",
      "type": "function"
    },
    {
      "inputs": [
        {
          "internalType": "uint256",
          "name": "_projectId",
          "type": "uint256"
        }
      ],
      "name": "releasePaymentAfterDeadline",
      "outputs": [],
      "stateMutability": "nonpayable",
      "type": "function"
    }
  ],
  "bytecode": "0x6080604052348015600f57600080fd5b506109028061001f6000396000f3fe60806040526004361061004a5760003560e01c8063107046bd1461004f57806393a5bc41146101285780639c3c08761461014a578063e1e7cf841461016a578063f0f3f2c81461017d575b600080fd5b34801561005b57600080fd5b506100cb61006a36600461086f565b60006020819052908152604090208054600182015460028301546003840154600485015460059095015493946001600160a01b03938416949290931692909160ff808216916101008104821691620100008204811691630100000090041689565b60408051998a526001600160a01b0398891660208b0152969097169588019590955260608701939093526080860191909152151560a0850152151560c0840152151560e08301521515610100820152610120015b60405180910390f35b34801561013457600080fd5b5061014861014336600461086f565b610246565b005b34801561015657600080fd5b5061014861016536600461086f565b610404565b610148610178366004610888565b610532565b34801561018957600080fd5b506101f861019836600461086f565b600090815260208190526040902060018101546002820154600383015460048401546005909401546001600160a01b039384169593909216939092909160ff80821692610100830482169262010000810483169263010000009091041690565b604080516001600160a01b03998a16815298909716602089015295870194909452606086019290925215156080850152151560a0840152151560c0830152151560e08201526101000161011f565b600081815260208190526040902060058101546301000000900460ff166102a95760405162461bcd60e51b8152602060048201526012602482015271141c9bda9958dd081b9bdd08199d5b99195960721b60448201526064015b60405180910390fd5b600581015460ff16156102fa5760405162461bcd60e51b8152602060048201526019602482015278141c9bda9958dd08185b1c9958591e4818dbdb5c1b195d1959603a1b60448201526064016102a0565b60018101546001600160a01b0316331480610321575060028101546001600160a01b031633145b61035c5760405162461bcd60e51b815260206004820152600c60248201526b155b985d5d1a1bdc9a5e995960a21b60448201526064016102a0565b60018101546001600160a01b031633036103865760058101805461ff00191661010017905561039a565b60058101805462ff00001916620100001790555b60405133815282907fae45c6260346930c9824dfa2888d501cfd9372f592303b38f7788326fc22f0169060200160405180910390a26005810154610100900460ff1680156103f25750600581015462010000900460ff165b156104005761040082610761565b5050565b600081815260208190526040902060058101546301000000900460ff166104625760405162461bcd60e51b8152602060048201526012602482015271141c9bda9958dd081b9bdd08199d5b99195960721b60448201526064016102a0565b600581015460ff16156104b35760405162461bcd60e51b8152602060048201526019602482015278141c9bda9958dd08185b1c9958591e4818dbdb5c1b195d1959603a1b60448201526064016102a0565b80600401544210156104fe5760405162461bcd60e51b8152602060048201526014602482015273111958591b1a5b99481b9bdd081c995858da195960621b60448201526064016102a0565b60405182907f70b57d902f64a75253efad79e10f28fc320da913eed65ef27449b6999198bdd890600090a261040082610761565b6001600160a01b0382166105885760405162461bcd60e51b815260206004820152601a60248201527f496e76616c696420667265656c616e636572206164647265737300000000000060448201526064016102a0565b4281116105d75760405162461bcd60e51b815260206004820152601e60248201527f446561646c696e65206d75737420626520696e2074686520667574757265000060448201526064016102a0565b600034116106275760405162461bcd60e51b815260206004820152601d60248201527f416d6f756e74206d7573742062652067726561746572207468616e203000000060448201526064016102a0565b600083815260208190526040902060018101546001600160a01b0316156106895760405162461bcd60e51b815260206004820152601660248201527550726f6a65637420616c72656164792065786973747360501b60448201526064016102a0565b8381556001810180546001600160a01b0319908116339081179092556002830180546001600160a01b03871692168217905534600384018190556004840185905560058401805463ff000000191663010000001790556040805193845260208401929092529082015284907ff03bc2e49a83d942284cb30e1c2935d4b542e1e1e6456d28b5365ddb110a52a29060600160405180910390a2837f26130d0cd3f6aa101d05e4a4f2ff016fd5b934363d17bdd03ff5dc03ec5934a93460405161075391815260200190565b60405180910390a250505050565b60008181526020819052604080822060058101805460ff191660011790556002810154600382015492519193926001600160a01b03909116918381818185875af1925050503d80600081146107d2576040519150601f19603f3d011682016040523d82523d6000602084013e6107d7565b606091505b505090508061081a5760405162461bcd60e51b815260206004820152600f60248201526e151c985b9cd9995c8819985a5b1959608a1b60448201526064016102a0565b60028201546003830154604080516001600160a01b039093168352602083019190915284917f21d71db5be59bb9fa133895586b7404307dd33fb93b16db09dc6f1d9d7d231b0910160405180910390a2505050565b60006020828403121561088157600080fd5b5035919050565b60008060006060848603121561089d57600080fd5b8335925060208401356001600160a01b03811681146108bb57600080fd5b92959294505050604091909101359056fea2646970667358221220021f227137ccf85aea7ea29142ccbadafd7708e0ef6bfcdd569d3ce41bc925b064736f6c634300081b0033",
  "linkReferences": {},
  "deployedLinkReferences": {}
}