{
  "_format": "hh-sol-artifact-1",
  "contractName": "GigFactory",
  "sourceName": "contracts/GigFactory.sol",
  "abi": [
    {
      "anonymous": false,
      "inputs": [
        {
          "indexed": true,
          "internalType": "address",
          "name": "gigAddress",
          "type": "address"
        }
      ],
      "name": "GigCreated",
      "type": "event"
    },
    {
      "inputs": [
        {
          "internalType": "string",
          "name": "_title",
          "type": "string"
        },
        {
          "internalType": "string",
          "name": "_description",
          "type": "string"
        },
        {
          "internalType": "uint256",
          "name": "_price",
          "type": "uint256"
        },
        {
          "internalType": "string",
          "name": "_category",
          "type": "string"
        }
      ],
      "name": "createGig",
      "outputs": [],
      "stateMutability": "nonpayable",
      "type": "function"
    },
    {
      "inputs": [],
      "name": "getAllGigs",
      "outputs": [
        {
          "internalType": "address[]",
          "name": "",
          "type": "address[]"
        }
      ],
      "stateMutability": "view",
      "type": "function"
    },
    {
      "inputs": [
        {
          "internalType": "uint256",
          "name": "",
          "type": "uint256"
        }
      ],
      "name": "gigs",
      "outputs": [
        {
          "internalType": "address",
          "name": "",
          "type": "address"
        }
      ],
      "stateMutability": "view",
      "type": "function"
    }
  ],
  "bytecode": "0x6080604052348015600f57600080fd5b50610f068061001f6000396000f3fe608060405234801561001057600080fd5b50600436106100415760003560e01c80635e3fbdc814610046578063602e68e1146100765780638248ea511461008b575b600080fd5b6100596100543660046101f4565b6100a0565b6040516001600160a01b0390911681526020015b60405180910390f35b6100896100843660046102b2565b6100ca565b005b610093610185565b60405161006d9190610350565b600081815481106100b057600080fd5b6000918252602090912001546001600160a01b0316905081565b600084848484336040516100dd906101e7565b6100eb9594939291906103e2565b604051809103906000f080158015610107573d6000803e3d6000fd5b50600080546001810182558180527f290decd9548b62a8d60345a988386fc84ba6bc95484008f6362f93160ef3e5630180546001600160a01b0319166001600160a01b038416908117909155604051929350917f58cc5c95776a8842ec67bf2bc546796706f5429ccd13dfeb21c497a0963ef7d59190a25050505050565b606060008054806020026020016040519081016040528092919081815260200182805480156101dd57602002820191906000526020600020905b81546001600160a01b031681526001909101906020018083116101bf575b5050505050905090565b610a948061043d83390190565b60006020828403121561020657600080fd5b5035919050565b634e487b7160e01b600052604160045260246000fd5b600082601f83011261023457600080fd5b813567ffffffffffffffff81111561024e5761024e61020d565b604051601f8201601f19908116603f0116810167ffffffffffffffff8111828210171561027d5761027d61020d565b60405281815283820160200185101561029557600080fd5b816020850160208301376000918101602001919091529392505050565b600080600080608085870312156102c857600080fd5b843567ffffffffffffffff8111156102df57600080fd5b6102eb87828801610223565b945050602085013567ffffffffffffffff81111561030857600080fd5b61031487828801610223565b93505060408501359150606085013567ffffffffffffffff81111561033857600080fd5b61034487828801610223565b91505092959194509250565b602080825282518282018190526000918401906040840190835b818110156103915783516001600160a01b031683526020938401939092019160010161036a565b509095945050505050565b6000815180845260005b818110156103c2576020818501810151868301820152016103a6565b506000602082860101526020601f19601f83011685010191505092915050565b60a0815260006103f560a083018861039c565b8281036020840152610407818861039c565b90508560408401528281036060840152610421818661039c565b91505060018060a01b0383166080830152969550505050505056fe608060405234801561001057600080fd5b50604051610a94380380610a9483398101604081905261002f9161014b565b600061003b8682610296565b5060016100488582610296565b506002839055600361005a8382610296565b50600480546001600160a01b0319166001600160a01b039290921691909117905550506005805460ff60a01b19169055506103549050565b634e487b7160e01b600052604160045260246000fd5b600082601f8301126100b957600080fd5b81516001600160401b038111156100d2576100d2610092565b604051601f8201601f19908116603f011681016001600160401b038111828210171561010057610100610092565b60405281815283820160200185101561011857600080fd5b60005b828110156101375760208186018101518383018201520161011b565b506000918101602001919091529392505050565b600080600080600060a0868803121561016357600080fd5b85516001600160401b0381111561017957600080fd5b610185888289016100a8565b602088015190965090506001600160401b038111156101a357600080fd5b6101af888289016100a8565b60408801516060890151919650945090506001600160401b038111156101d457600080fd5b6101e0888289016100a8565b608088015190935090506001600160a01b03811681146101ff57600080fd5b809150509295509295909350565b600181811c9082168061022157607f821691505b60208210810361024157634e487b7160e01b600052602260045260246000fd5b50919050565b601f82111561029157806000526020600020601f840160051c8101602085101561026e5750805b601f840160051c820191505b8181101561028e576000815560010161027a565b50505b505050565b81516001600160401b038111156102af576102af610092565b6102c3816102bd845461020d565b84610247565b6020601f8211600181146102f757600083156102df5750848201515b600019600385901b1c1916600184901b17845561028e565b600084815260208120601f198516915b828110156103275787850151825560209485019460019092019101610307565b50848210156103455786840151600019600387901b60f8161c191681555b50505050600190811b01905550565b610731806103636000396000f3fe6080604052600436106100915760003560e01c80638d69e95e116100595780638d69e95e14610129578063a035b1fe14610149578063c19d93fb1461016d578063ef430aa61461019b578063f81fe138146101b057600080fd5b8063109e94cf14610096578063265202de146100d35780634a79d50c146100ea5780637284e4161461010c5780637867ae6414610121575b600080fd5b3480156100a257600080fd5b506005546100b6906001600160a01b031681565b6040516001600160a01b0390911681526020015b60405180910390f35b3480156100df57600080fd5b506100e86101c5565b005b3480156100f657600080fd5b506100ff610319565b6040516100ca9190610635565b34801561011857600080fd5b506100ff6103a7565b6100e86103b4565b34801561013557600080fd5b506004546100b6906001600160a01b031681565b34801561015557600080fd5b5061015f60025481565b6040519081526020016100ca565b34801561017957600080fd5b5060055461018e90600160a01b900460ff1681565b6040516100ca9190610699565b3480156101a757600080fd5b506100ff6104c1565b3480156101bc57600080fd5b506100e86104ce565b6004546001600160a01b0316331461023b5760405162461bcd60e51b815260206004820152602e60248201527f4f6e6c792074686520736572766963652070726f76696465722063616e20636f60448201526d6d706c657465207468652067696760901b60648201526084015b60405180910390fd5b6001600554600160a01b900460ff16600381111561025b5761025b610683565b146102a15760405162461bcd60e51b8152602060048201526016602482015275476967206973206e6f7420696e2070726f677265737360501b6044820152606401610232565b6005805460ff60a01b1916600160a11b1790556004546040516001600160a01b03909116904780156108fc02916000818181858888f193505050501580156102ed573d6000803e3d6000fd5b506040517fa88b8dba9c6139989b91112ca2f0623f9b74a641fdeb59c6c0ac3be4e087d7bb90600090a1565b60008054610326906106c1565b80601f0160208091040260200160405190810160405280929190818152602001828054610352906106c1565b801561039f5780601f106103745761010080835404028352916020019161039f565b820191906000526020600020905b81548152906001019060200180831161038257829003601f168201915b505050505081565b60018054610326906106c1565b6000600554600160a01b900460ff1660038111156103d4576103d4610683565b146104185760405162461bcd60e51b8152602060048201526014602482015273476967206973206e6f7420617661696c61626c6560601b6044820152606401610232565b60025434146104695760405162461bcd60e51b815260206004820152601860248201527f496e636f7272656374207061796d656e7420616d6f756e7400000000000000006044820152606401610232565b600580546001600160a81b0319163360ff60a01b191617600160a01b17908190556040516001600160a01b03909116907f3b6636da6d5cfa67bb14b33902e1a52eb406f22232416794173c7bdf17e9624190600090a2565b60038054610326906106c1565b6005546001600160a01b03163314806104f157506004546001600160a01b031633145b6105585760405162461bcd60e51b815260206004820152603260248201527f4f6e6c7920636c69656e74206f7220736572766963652070726f76696465722060448201527163616e2063616e63656c207468652067696760701b6064820152608401610232565b6001600554600160a01b900460ff16600381111561057857610578610683565b146105be5760405162461bcd60e51b8152602060048201526016602482015275476967206973206e6f7420696e2070726f677265737360501b6044820152606401610232565b6005805460ff60a01b198116600360a01b179091556040516001600160a01b03909116904780156108fc02916000818181858888f19350505050158015610609573d6000803e3d6000fd5b506040517fd9ce3885634e3d3d449b84e03da299aa73ec3f6597c5ddf355be06adef4d66f290600090a1565b602081526000825180602084015260005b818110156106635760208186018101516040868401015201610646565b506000604082850101526040601f19601f83011684010191505092915050565b634e487b7160e01b600052602160045260246000fd5b60208101600483106106bb57634e487b7160e01b600052602160045260246000fd5b91905290565b600181811c908216806106d557607f821691505b6020821081036106f557634e487b7160e01b600052602260045260246000fd5b5091905056fea26469706673582212206dbb78e5d800a4c5ab63652e25d63f1b5db71bd65711a64b37dc3e88b32c51a064736f6c634300081b0033a264697066735822122078e7ffc62d44f2082eb5e8d4f88528286601c8a9178bfe84ff54881f1602b8a464736f6c634300081b0033",
  "linkReferences": {},
  "deployedLinkReferences": {}
}