{
  "_format": "hh-sol-artifact-1",
  "contractName": "GigOrder",
  "sourceName": "contracts/GigOrder.sol",
  "abi": [
    {
      "inputs": [],
      "stateMutability": "nonpayable",
      "type": "constructor"
    },
    {
      "inputs": [
        {
          "internalType": "address",
          "name": "owner",
          "type": "address"
        }
      ],
      "name": "OwnableInvalidOwner",
      "type": "error"
    },
    {
      "inputs": [
        {
          "internalType": "address",
          "name": "account",
          "type": "address"
        }
      ],
      "name": "OwnableUnauthorizedAccount",
      "type": "error"
    },
    {
      "inputs": [],
      "name": "ReentrancyGuardReentrantCall",
      "type": "error"
    },
    {
      "anonymous": false,
      "inputs": [
        {
          "indexed": false,
          "internalType": "uint256",
          "name": "orderId",
          "type": "uint256"
        }
      ],
      "name": "OrderCancelled",
      "type": "event"
    },
    {
      "anonymous": false,
      "inputs": [
        {
          "indexed": false,
          "internalType": "uint256",
          "name": "orderId",
          "type": "uint256"
        }
      ],
      "name": "OrderCompleted",
      "type": "event"
    },
    {
      "anonymous": false,
      "inputs": [
        {
          "indexed": false,
          "internalType": "uint256",
          "name": "orderId",
          "type": "uint256"
        },
        {
          "indexed": false,
          "internalType": "address",
          "name": "buyer",
          "type": "address"
        },
        {
          "indexed": false,
          "internalType": "address",
          "name": "seller",
          "type": "address"
        },
        {
          "indexed": false,
          "internalType": "uint256",
          "name": "amount",
          "type": "uint256"
        }
      ],
      "name": "OrderCreated",
      "type": "event"
    },
    {
      "anonymous": false,
      "inputs": [
        {
          "indexed": false,
          "internalType": "uint256",
          "name": "orderId",
          "type": "uint256"
        }
      ],
      "name": "OrderPaid",
      "type": "event"
    },
    {
      "anonymous": false,
      "inputs": [
        {
          "indexed": true,
          "internalType": "address",
          "name": "previousOwner",
          "type": "address"
        },
        {
          "indexed": true,
          "internalType": "address",
          "name": "newOwner",
          "type": "address"
        }
      ],
      "name": "OwnershipTransferred",
      "type": "event"
    },
    {
      "inputs": [
        {
          "internalType": "uint256",
          "name": "_orderId",
          "type": "uint256"
        }
      ],
      "name": "cancelOrder",
      "outputs": [],
      "stateMutability": "nonpayable",
      "type": "function"
    },
    {
      "inputs": [
        {
          "internalType": "uint256",
          "name": "_orderId",
          "type": "uint256"
        }
      ],
      "name": "completeOrder",
      "outputs": [],
      "stateMutability": "nonpayable",
      "type": "function"
    },
    {
      "inputs": [
        {
          "internalType": "address",
          "name": "_seller",
          "type": "address"
        }
      ],
      "name": "createOrder",
      "outputs": [
        {
          "internalType": "uint256",
          "name": "",
          "type": "uint256"
        }
      ],
      "stateMutability": "payable",
      "type": "function"
    },
    {
      "inputs": [],
      "name": "orderCounter",
      "outputs": [
        {
          "internalType": "uint256",
          "name": "",
          "type": "uint256"
        }
      ],
      "stateMutability": "view",
      "type": "function"
    },
    {
      "inputs": [
        {
          "internalType": "uint256",
          "name": "",
          "type": "uint256"
        }
      ],
      "name": "orders",
      "outputs": [
        {
          "internalType": "uint256",
          "name": "id",
          "type": "uint256"
        },
        {
          "internalType": "address",
          "name": "buyer",
          "type": "address"
        },
        {
          "internalType": "address",
          "name": "seller",
          "type": "address"
        },
        {
          "internalType": "uint256",
          "name": "amount",
          "type": "uint256"
        },
        {
          "internalType": "enum GigOrder.OrderStatus",
          "name": "status",
          "type": "uint8"
        }
      ],
      "stateMutability": "view",
      "type": "function"
    },
    {
      "inputs": [],
      "name": "owner",
      "outputs": [
        {
          "internalType": "address",
          "name": "",
          "type": "address"
        }
      ],
      "stateMutability": "view",
      "type": "function"
    },
    {
      "inputs": [
        {
          "internalType": "uint256",
          "name": "_orderId",
          "type": "uint256"
        }
      ],
      "name": "payOrder",
      "outputs": [],
      "stateMutability": "payable",
      "type": "function"
    },
    {
      "inputs": [],
      "name": "renounceOwnership",
      "outputs": [],
      "stateMutability": "nonpayable",
      "type": "function"
    },
    {
      "inputs": [
        {
          "internalType": "address",
          "name": "newOwner",
          "type": "address"
        }
      ],
      "name": "transferOwnership",
      "outputs": [],
      "stateMutability": "nonpayable",
      "type": "function"
    }
  ],
  "bytecode": "0x6080604052348015600f57600080fd5b5060016000553380603a57604051631e4fbdf760e01b81526000600482015260240160405180910390fd5b6041816046565b506098565b600180546001600160a01b038381166001600160a01b0319831681179093556040519116919082907f8be0079c531659141344cd1fd0a4f28419497f9722a3daafe3b4186f6b6457e090600090a35050565b61098c806100a76000396000f3fe6080604052600436106100865760003560e01c8063a85c38ef11610059578063a85c38ef14610102578063b6adaaff1461016c578063b789bf521461018c578063ea3774e3146101b0578063f2fde38b146101c357600080fd5b80632a685d3c1461008b578063514fcac7146100a0578063715018a6146100c05780638da5cb5b146100d5575b600080fd5b61009e61009936600461087d565b6101e3565b005b3480156100ac57600080fd5b5061009e6100bb36600461087d565b61034d565b3480156100cc57600080fd5b5061009e6104e3565b3480156100e157600080fd5b506001546040516001600160a01b0390911681526020015b60405180910390f35b34801561010e57600080fd5b5061015b61011d36600461087d565b60026020819052600091825260409091208054600182015492820154600383015460049093015491936001600160a01b039081169391169160ff1685565b6040516100f99594939291906108ac565b34801561017857600080fd5b5061009e61018736600461087d565b6104f7565b34801561019857600080fd5b506101a260035481565b6040519081526020016100f9565b6101a26101be3660046108ff565b610636565b3480156101cf57600080fd5b5061009e6101de3660046108ff565b610799565b6101eb6107d4565b600081815260026020526040902060018101546001600160a01b0316331461024a5760405162461bcd60e51b815260206004820152600d60248201526c2737ba103a343290313abcb2b960991b60448201526064015b60405180910390fd5b6000600482015460ff16600381111561026557610265610896565b146102a95760405162461bcd60e51b8152602060048201526014602482015273496e76616c6964206f726465722073746174757360601b6044820152606401610241565b806003015434146102fc5760405162461bcd60e51b815260206004820152601860248201527f496e636f7272656374207061796d656e7420616d6f756e7400000000000000006044820152606401610241565b60048101805460ff191660011790556040518281527f15e33efda35e5da2fb096ba49585307ba468af144aea691da964aaff1a7f3a57906020015b60405180910390a15061034a6001600055565b50565b6103556107d4565b600081815260026020526040902060018101546001600160a01b031633148061038a575060028101546001600160a01b031633145b6103c75760405162461bcd60e51b815260206004820152600e60248201526d139bdd08185d5d1a1bdc9a5e995960921b6044820152606401610241565b6000600482015460ff1660038111156103e2576103e2610896565b148061040657506001600482015460ff16600381111561040457610404610896565b145b6104425760405162461bcd60e51b815260206004820152600d60248201526c10d85b9b9bdd0818d85b98d95b609a1b6044820152606401610241565b6001600482015460ff16600381111561045d5761045d610896565b036104a457600181015460038201546040516001600160a01b039092169181156108fc0291906000818181858888f193505050501580156104a2573d6000803e3d6000fd5b505b60048101805460ff191660031790556040518281527f61b9399f2f0f32ca39ce8d7be32caed5ec22fe07a6daba3a467ed479ec60658290602001610337565b6104eb6107fe565b6104f5600061082b565b565b6104ff6107d4565b6000818152600260208190526040909120908101546001600160a01b0316331461055c5760405162461bcd60e51b815260206004820152600e60248201526d2737ba103a34329039b2b63632b960911b6044820152606401610241565b6001600482015460ff16600381111561057757610577610896565b146105b55760405162461bcd60e51b815260206004820152600e60248201526d13dc99195c881b9bdd081c185a5960921b6044820152606401610241565b60048101805460ff1916600290811790915581015460038201546040516001600160a01b03909216916108fc82150291906000818181858888f19350505050158015610605573d6000803e3d6000fd5b506040518281527f02a7d4d9472af7118644884b9a0ee443540c0027e938dd0aa35be8ecbe946c0a90602001610337565b600080341161067a5760405162461bcd60e51b815260206004820152601060248201526f14185e5b595b9d081c995c5d5a5c995960821b6044820152606401610241565b6003805490600061068a8361092f565b90915550506040805160a081018252600380548083523360208085019182526001600160a01b03888116868801908152346060880190815260006080890181815296815260029485905298909820875181559351600180860180549285166001600160a01b0319938416179055915193850180549490931693169290921790559451818401559051600482018054949592949193909260ff199092169190849081111561073957610739610896565b021790555050600354604080519182523360208301526001600160a01b038516908201523460608201527ff9e17940e547201709f9aaacdec8ab3566601c60d8f5affb54f74b79b0b50b13915060800160405180910390a1505060035490565b6107a16107fe565b6001600160a01b0381166107cb57604051631e4fbdf760e01b815260006004820152602401610241565b61034a8161082b565b6002600054036107f757604051633ee5aeb560e01b815260040160405180910390fd5b6002600055565b6001546001600160a01b031633146104f55760405163118cdaa760e01b8152336004820152602401610241565b600180546001600160a01b038381166001600160a01b0319831681179093556040519116919082907f8be0079c531659141344cd1fd0a4f28419497f9722a3daafe3b4186f6b6457e090600090a35050565b60006020828403121561088f57600080fd5b5035919050565b634e487b7160e01b600052602160045260246000fd5b8581526001600160a01b038581166020830152841660408201526060810183905260a08101600483106108ef57634e487b7160e01b600052602160045260246000fd5b8260808301529695505050505050565b60006020828403121561091157600080fd5b81356001600160a01b038116811461092857600080fd5b9392505050565b60006001820161094f57634e487b7160e01b600052601160045260246000fd5b506001019056fea2646970667358221220e3950ef6c25f50db17ff21a4d0a415776e83df0badf00e692cb6dd065055345664736f6c634300081b0033",
  "linkReferences": {},
  "deployedLinkReferences": {}
}